{
  "_format": "hh-sol-artifact-1",
  "contractName": "LINKTUM",
  "sourceName": "contracts/LINKTUM.sol",
  "abi": [
    {
      "inputs": [],
      "stateMutability": "nonpayable",
      "type": "constructor"
    },
    {
      "anonymous": false,
      "inputs": [
        {
          "indexed": true,
          "internalType": "address",
          "name": "owner",
          "type": "address"
        },
        {
          "indexed": true,
          "internalType": "address",
          "name": "spender",
          "type": "address"
        },
        {
          "indexed": false,
          "internalType": "uint256",
          "name": "value",
          "type": "uint256"
        }
      ],
      "name": "Approval",
      "type": "event"
    },
    {
      "anonymous": false,
      "inputs": [
        {
          "indexed": true,
          "internalType": "address",
          "name": "from",
          "type": "address"
        },
        {
          "indexed": true,
          "internalType": "address",
          "name": "to",
          "type": "address"
        },
        {
          "indexed": false,
          "internalType": "uint256",
          "name": "value",
          "type": "uint256"
        }
      ],
      "name": "Transfer",
      "type": "event"
    },
    {
      "inputs": [],
      "name": "INITIAL_SUPPLY",
      "outputs": [
        {
          "internalType": "uint256",
          "name": "",
          "type": "uint256"
        }
      ],
      "stateMutability": "view",
      "type": "function"
    },
    {
      "inputs": [
        {
          "internalType": "address",
          "name": "owner",
          "type": "address"
        },
        {
          "internalType": "address",
          "name": "spender",
          "type": "address"
        }
      ],
      "name": "allowance",
      "outputs": [
        {
          "internalType": "uint256",
          "name": "",
          "type": "uint256"
        }
      ],
      "stateMutability": "view",
      "type": "function"
    },
    {
      "inputs": [
        {
          "internalType": "address",
          "name": "spender",
          "type": "address"
        },
        {
          "internalType": "uint256",
          "name": "amount",
          "type": "uint256"
        }
      ],
      "name": "approve",
      "outputs": [
        {
          "internalType": "bool",
          "name": "",
          "type": "bool"
        }
      ],
      "stateMutability": "nonpayable",
      "type": "function"
    },
    {
      "inputs": [
        {
          "internalType": "address",
          "name": "account",
          "type": "address"
        }
      ],
      "name": "balanceOf",
      "outputs": [
        {
          "internalType": "uint256",
          "name": "",
          "type": "uint256"
        }
      ],
      "stateMutability": "view",
      "type": "function"
    },
    {
      "inputs": [],
      "name": "decimals",
      "outputs": [
        {
          "internalType": "uint8",
          "name": "",
          "type": "uint8"
        }
      ],
      "stateMutability": "view",
      "type": "function"
    },
    {
      "inputs": [
        {
          "internalType": "address",
          "name": "spender",
          "type": "address"
        },
        {
          "internalType": "uint256",
          "name": "subtractedValue",
          "type": "uint256"
        }
      ],
      "name": "decreaseAllowance",
      "outputs": [
        {
          "internalType": "bool",
          "name": "",
          "type": "bool"
        }
      ],
      "stateMutability": "nonpayable",
      "type": "function"
    },
    {
      "inputs": [
        {
          "internalType": "address",
          "name": "spender",
          "type": "address"
        },
        {
          "internalType": "uint256",
          "name": "addedValue",
          "type": "uint256"
        }
      ],
      "name": "increaseAllowance",
      "outputs": [
        {
          "internalType": "bool",
          "name": "",
          "type": "bool"
        }
      ],
      "stateMutability": "nonpayable",
      "type": "function"
    },
    {
      "inputs": [],
      "name": "name",
      "outputs": [
        {
          "internalType": "string",
          "name": "",
          "type": "string"
        }
      ],
      "stateMutability": "view",
      "type": "function"
    },
    {
      "inputs": [],
      "name": "symbol",
      "outputs": [
        {
          "internalType": "string",
          "name": "",
          "type": "string"
        }
      ],
      "stateMutability": "view",
      "type": "function"
    },
    {
      "inputs": [],
      "name": "totalSupply",
      "outputs": [
        {
          "internalType": "uint256",
          "name": "",
          "type": "uint256"
        }
      ],
      "stateMutability": "view",
      "type": "function"
    },
    {
      "inputs": [
        {
          "internalType": "address",
          "name": "to",
          "type": "address"
        },
        {
          "internalType": "uint256",
          "name": "amount",
          "type": "uint256"
        }
      ],
      "name": "transfer",
      "outputs": [
        {
          "internalType": "bool",
          "name": "",
          "type": "bool"
        }
      ],
      "stateMutability": "nonpayable",
      "type": "function"
    },
    {
      "inputs": [
        {
          "internalType": "address",
          "name": "from",
          "type": "address"
        },
        {
          "internalType": "address",
          "name": "to",
          "type": "address"
        },
        {
          "internalType": "uint256",
          "name": "amount",
          "type": "uint256"
        }
      ],
      "name": "transferFrom",
      "outputs": [
        {
          "internalType": "bool",
          "name": "",
          "type": "bool"
        }
      ],
      "stateMutability": "nonpayable",
      "type": "function"
    }
  ],
  "bytecode": "0x608034620003bf576040906001600160401b0381830181811183821017620002bf57835260078252602090664c494e4b54554d60c81b8284015283519284840184811083821117620002bf578552600391828552624c544d60e81b84860152815192818411620002bf578054936001938486811c96168015620003b4575b878710146200039e578190601f9687811162000348575b508790878311600114620002e157600092620002d5575b505060001982841b1c191690841b1781555b8551918211620002bf5760049586548481811c91168015620002b4575b878210146200029f5785811162000254575b508590858411600114620001e957938394918492600095620001dd575b50501b92600019911b1c19161783555b33156200019e575060025469d3c21bcecceda1000000928382018092116200018957506000917fddf252ad1be2c89b69c2b068fc378daa952ba7f163c4a11628f55a4df523b3ef9160025533835282815284832084815401905584519384523393a3516108d99081620003c58239f35b601190634e487b7160e01b6000525260246000fd5b90606493519262461bcd60e51b845283015260248201527f45524332303a206d696e7420746f20746865207a65726f2061646472657373006044820152fd5b01519350388062000109565b9190601f198416928860005284886000209460005b8a898383106200023c575050501062000221575b50505050811b01835562000119565b01519060f884600019921b161c191690553880808062000212565b868601518955909701969485019488935001620001fe565b87600052866000208680860160051c82019289871062000295575b0160051c019085905b82811062000288575050620000ec565b6000815501859062000278565b925081926200026f565b602288634e487b7160e01b6000525260246000fd5b90607f1690620000da565b634e487b7160e01b600052604160045260246000fd5b015190503880620000ab565b90869350601f1983169185600052896000209260005b8b82821062000331575050841162000318575b505050811b018155620000bd565b015160001983861b60f8161c191690553880806200030a565b8385015186558a97909501949384019301620002f7565b90915083600052876000208780850160051c8201928a861062000394575b918891869594930160051c01915b8281106200038457505062000094565b6000815585945088910162000374565b9250819262000366565b634e487b7160e01b600052602260045260246000fd5b95607f16956200007d565b600080fdfe608060408181526004918236101561001657600080fd5b600092833560e01c91826306fdde03146104dd57508163095ea7b3146104b357816318160ddd1461049457816323b872dd146103ca5781632ff2e9dc146103a5578163313ce56714610389578163395093511461032257816370a08231146102eb57816395d89b41146101cc578163a457c2d71461012457508063a9059cbb146100f45763dd62ed3e146100a957600080fd5b346100f057806003193601126100f057806020926100c5610602565b6100cd61061d565b6001600160a01b0391821683526001865283832091168252845220549051908152f35b5080fd5b50346100f057806003193601126100f05760209061011d610113610602565b6024359033610633565b5160018152f35b905082346101c957826003193601126101c95761013f610602565b918360243592338152600160205281812060018060a01b03861682526020522054908282106101785760208561011d85850387336107a1565b608490602086519162461bcd60e51b8352820152602560248201527f45524332303a2064656372656173656420616c6c6f77616e63652062656c6f77604482015264207a65726f60d81b6064820152fd5b80fd5b8383346100f057816003193601126100f057805190828454600181811c908083169283156102e1575b60209384841081146102ce578388529081156102b2575060011461025d575b505050829003601f01601f191682019267ffffffffffffffff84118385101761024a57508291826102469252826105b9565b0390f35b634e487b7160e01b815260418552602490fd5b8787529192508591837f8a35acfbc15ff81a39ae7d344fd709f28e8600b4aa8c65c6b64bfe7fe36bd19b5b83851061029e5750505050830101858080610214565b805488860183015293019284908201610288565b60ff1916878501525050151560051b8401019050858080610214565b634e487b7160e01b895260228a52602489fd5b91607f16916101f5565b5050346100f05760203660031901126100f05760209181906001600160a01b03610313610602565b16815280845220549051908152f35b8284346101c957816003193601126101c95761033c610602565b338252600160209081528383206001600160a01b03831684529052828220546024358101929083106103765760208461011d8585336107a1565b634e487b7160e01b815260118552602490fd5b5050346100f057816003193601126100f0576020905160128152f35b5050346100f057816003193601126100f0576020905169d3c21bcecceda10000008152f35b839150346100f05760603660031901126100f0576103e6610602565b6103ee61061d565b91846044359460018060a01b038416815260016020528181203382526020522054906000198203610428575b60208661011d878787610633565b84821061045157509183916104466020969561011d950333836107a1565b91939481935061041a565b606490602087519162461bcd60e51b8352820152601d60248201527f45524332303a20696e73756666696369656e7420616c6c6f77616e63650000006044820152fd5b5050346100f057816003193601126100f0576020906002549051908152f35b5050346100f057806003193601126100f05760209061011d6104d3610602565b60243590336107a1565b849084346105b557826003193601126105b55782600354600181811c908083169283156105ab575b60209384841081146102ce578388529081156102b2575060011461055557505050829003601f01601f191682019267ffffffffffffffff84118385101761024a57508291826102469252826105b9565b600387529192508591837fc2575a0e9e593c00f959f8c92f12db2869c3395a3b0502d05e2516446f71f85b5b8385106105975750505050830101858080610214565b805488860183015293019284908201610581565b91607f1691610505565b8280fd5b6020808252825181830181905290939260005b8281106105ee57505060409293506000838284010152601f8019910116010190565b8181018601518482016040015285016105cc565b600435906001600160a01b038216820361061857565b600080fd5b602435906001600160a01b038216820361061857565b6001600160a01b0390811691821561074e57169182156106fd576000828152806020526040812054918083106106a957604082827fddf252ad1be2c89b69c2b068fc378daa952ba7f163c4a11628f55a4df523b3ef958760209652828652038282205586815220818154019055604051908152a3565b60405162461bcd60e51b815260206004820152602660248201527f45524332303a207472616e7366657220616d6f756e7420657863656564732062604482015265616c616e636560d01b6064820152608490fd5b60405162461bcd60e51b815260206004820152602360248201527f45524332303a207472616e7366657220746f20746865207a65726f206164647260448201526265737360e81b6064820152608490fd5b60405162461bcd60e51b815260206004820152602560248201527f45524332303a207472616e736665722066726f6d20746865207a65726f206164604482015264647265737360d81b6064820152608490fd5b6001600160a01b0390811691821561085257169182156108025760207f8c5be1e5ebec7d5bd14f71427d1e84f3dd0314c0f7b2291e5b200ac8c7c3b925918360005260018252604060002085600052825280604060002055604051908152a3565b60405162461bcd60e51b815260206004820152602260248201527f45524332303a20617070726f766520746f20746865207a65726f206164647265604482015261737360f01b6064820152608490fd5b60405162461bcd60e51b8152602060048201526024808201527f45524332303a20617070726f76652066726f6d20746865207a65726f206164646044820152637265737360e01b6064820152608490fdfea2646970667358221220974cba58406e1a51b2d1251d1eb0748e0db8a508fc05c233512f3aee0426e00664736f6c63430008130033",
  "linkReferences": {},
  "deployedLinkReferences": {}
}