{
  "_format": "hh-sol-artifact-1",
  "contractName": "TokenICO",
  "sourceName": "contracts/TokenICO.sol",
  "abi": [
    {
      "inputs": [],
      "stateMutability": "nonpayable",
      "type": "constructor"
    },
    {
      "inputs": [],
      "name": "CannotRescueSaleToken",
      "type": "error"
    },
    {
      "inputs": [],
      "name": "EthTransferFailed",
      "type": "error"
    },
    {
      "inputs": [],
      "name": "InvalidAddress",
      "type": "error"
    },
    {
      "inputs": [],
      "name": "InvalidPrice",
      "type": "error"
    },
    {
      "inputs": [],
      "name": "NoEtherSent",
      "type": "error"
    },
    {
      "inputs": [],
      "name": "NoTokenToRescue",
      "type": "error"
    },
    {
      "inputs": [],
      "name": "NoTokenWithdraw",
      "type": "error"
    },
    {
      "inputs": [],
      "name": "OnlyOwner",
      "type": "error"
    },
    {
      "inputs": [],
      "name": "SaleTokenNotSet",
      "type": "error"
    },
    {
      "inputs": [],
      "name": "TokenTransferFailed",
      "type": "error"
    },
    {
      "inputs": [],
      "name": "UseTokenFunction",
      "type": "error"
    },
    {
      "anonymous": false,
      "inputs": [
        {
          "indexed": false,
          "internalType": "uint256",
          "name": "oldPrice",
          "type": "uint256"
        },
        {
          "indexed": false,
          "internalType": "uint256",
          "name": "newPrice",
          "type": "uint256"
        }
      ],
      "name": "PriceUpdated",
      "type": "event"
    },
    {
      "anonymous": false,
      "inputs": [
        {
          "indexed": true,
          "internalType": "address",
          "name": "token",
          "type": "address"
        }
      ],
      "name": "SaleTokenSet",
      "type": "event"
    },
    {
      "anonymous": false,
      "inputs": [
        {
          "indexed": true,
          "internalType": "address",
          "name": "buyers",
          "type": "address"
        },
        {
          "indexed": false,
          "internalType": "uint256",
          "name": "amountPaid",
          "type": "uint256"
        },
        {
          "indexed": false,
          "internalType": "uint256",
          "name": "tokensBought",
          "type": "uint256"
        }
      ],
      "name": "TokensPurchased",
      "type": "event"
    },
    {
      "inputs": [],
      "name": "buyTokens",
      "outputs": [],
      "stateMutability": "payable",
      "type": "function"
    },
    {
      "inputs": [],
      "name": "ethPriceForToken",
      "outputs": [
        {
          "internalType": "uint256",
          "name": "",
          "type": "uint256"
        }
      ],
      "stateMutability": "view",
      "type": "function"
    },
    {
      "inputs": [],
      "name": "getContractInfo",
      "outputs": [
        {
          "internalType": "address",
          "name": "tokenAddress",
          "type": "address"
        },
        {
          "internalType": "string",
          "name": "tokenSymbol",
          "type": "string"
        },
        {
          "internalType": "uint8",
          "name": "tokenDecimals",
          "type": "uint8"
        },
        {
          "internalType": "uint256",
          "name": "tokenBalance",
          "type": "uint256"
        },
        {
          "internalType": "uint256",
          "name": "ethPrice",
          "type": "uint256"
        },
        {
          "internalType": "uint256",
          "name": "tokenSold",
          "type": "uint256"
        }
      ],
      "stateMutability": "view",
      "type": "function"
    },
    {
      "inputs": [],
      "name": "owner",
      "outputs": [
        {
          "internalType": "address",
          "name": "",
          "type": "address"
        }
      ],
      "stateMutability": "view",
      "type": "function"
    },
    {
      "inputs": [
        {
          "internalType": "address",
          "name": "tokenAddress",
          "type": "address"
        }
      ],
      "name": "rescueToken",
      "outputs": [],
      "stateMutability": "nonpayable",
      "type": "function"
    },
    {
      "inputs": [],
      "name": "saleToken",
      "outputs": [
        {
          "internalType": "address",
          "name": "",
          "type": "address"
        }
      ],
      "stateMutability": "view",
      "type": "function"
    },
    {
      "inputs": [
        {
          "internalType": "address",
          "name": "_token",
          "type": "address"
        }
      ],
      "name": "setSaleToken",
      "outputs": [],
      "stateMutability": "nonpayable",
      "type": "function"
    },
    {
      "inputs": [],
      "name": "tokensSold",
      "outputs": [
        {
          "internalType": "uint256",
          "name": "",
          "type": "uint256"
        }
      ],
      "stateMutability": "view",
      "type": "function"
    },
    {
      "inputs": [
        {
          "internalType": "uint256",
          "name": "newPrice",
          "type": "uint256"
        }
      ],
      "name": "updatetokenPrice",
      "outputs": [],
      "stateMutability": "nonpayable",
      "type": "function"
    },
    {
      "inputs": [],
      "name": "withdrawAllToken",
      "outputs": [],
      "stateMutability": "nonpayable",
      "type": "function"
    },
    {
      "stateMutability": "payable",
      "type": "receive"
    }
  ],
  "bytecode": "0x60a080604052346100515766038d7ea4c6800060015533608052610a249081610057823960805181818161019b0152818161032e015281816103c6015281816105ff015281816106b401526108200152f35b600080fdfe608060408181526004918236101561002b575b50361561001e57600080fd5b5163b67b8d2960e01b8152fd5b600090813560e01c90816314870d2c1461080a575080634460d3cf1461068857806346437626146105e7578063518ab2a8146105c85780637cc1f867146103f55780638da5cb5b146103b1578063a29f481c14610303578063c605af53146102e4578063d0febe4c146100cd5763e985e367036100125790346100c957816003193601126100c957905490516001600160a01b039091168152602090f35b5080fd5b509190826003193601126102e05734156102d35782546001600160a01b031680156102c557815163313ce56760e01b81526020939084818381865afa908115610268579060ff918791610298575b5016604d811161028557600a0a8034029034820403610285576001549081156102725704918260025401600255848451809263a9059cbb60e01b825281898161017c89338a840160209093929193604081019460018060a01b031681520152565b03925af190811561026857869161023b575b501561022d5784808080347f00000000000000000000000000000000000000000000000000000000000000005af13d15610228573d6101cc816109d2565b906101d986519283610964565b815286863d92013e5b1561021a5750907f8fafebcaf9d154343dad25669bfa277f4fbacd7ac6b0c4fed522580e040a0f33918151933485528401523392a280f35b8251630db2c7f160e31b8152fd5b6101e2565b825163022e258160e11b8152fd5b61025b9150853d8711610261575b6102538183610964565b81019061099c565b3861018e565b503d610249565b84513d88823e3d90fd5b634e487b7160e01b875260128352602487fd5b634e487b7160e01b865260118252602486fd5b6102b89150863d88116102be575b6102b08183610964565b8101906109b9565b3861011b565b503d6102a6565b505163a327f80560e01b8152fd5b516341eceffb60e11b8152fd5b8280fd5b5090346100c957816003193601126100c9576020906001549051908152f35b5091346102e05760203660031901126102e05780356001600160a01b0381811693918490036103ad577f00000000000000000000000000000000000000000000000000000000000000001633036103a057821561039357505081546001600160a01b031916811782557f3f8bb5f6e8ecfb5425a48c996d20089aff3396b3c168c13403c3fa3996f70a028280a280f35b5163e6c4247b60e01b8152fd5b51635fc483c560e01b8152fd5b8480fd5b5090346100c957816003193601126100c957517f00000000000000000000000000000000000000000000000000000000000000006001600160a01b03168152602090f35b50346105c557806003193601126105c557805482516395d89b4160e01b81526001600160a01b039091169180828681865afa9182156105b9578192610539575b50835163313ce56760e01b815260209485828881885afa91821561052f578392610510575b508051966370a0823160e01b885230908801528587602481885afa9081156105075783916104d5575b60e096975060ff600154936104b383519a8b998a5260c0818b015288519889918260c08d01528c8c019101610941565b16908601526060850152608084015260a0830152601f01601f19168101030190f35b90508587813d8311610500575b6104ec8183610964565b810103126102e05795519495869590610483565b503d6104e2565b513d84823e3d90fd5b610528919250863d88116102be576102b08183610964565b903861045a565b81513d85823e3d90fd5b9091503d8083833e61054b8183610964565b8101906020818303126102e05780519067ffffffffffffffff82116105b5570181601f820112156102e057805190610582826109d2565b9261058f87519485610964565b828452602083830101116105b557906105ae9160208085019101610941565b9038610435565b8380fd5b508351903d90823e3d90fd5b80fd5b5090346100c957816003193601126100c9576020906002549051908152f35b5091346102e05760203660031901126102e0578035907f00000000000000000000000000000000000000000000000000000000000000006001600160a01b0316330361067a57811561066d5750907f945c1c4e99aa89f648fbfe3df471b916f719e16d960fcec0737d4d56bd69683891600154908060015582519182526020820152a180f35b825162bfc92160e01b8152fd5b8251635fc483c560e01b8152fd5b509190346102e0576020806003193601126105b5576001600160a01b03833581811690819003610806577f00000000000000000000000000000000000000000000000000000000000000009180831633036107f65786541681146107e65783516370a0823160e01b81523086820152918383602481855afa9283156107dc5787936107a9575b50821561079957845163a9059cbb60e01b81526001600160a01b039091168682019081526020810193909352918391839182908990829060400103925af191821561078f578592610772575b505015610765578280f35b5163022e258160e11b8152fd5b6107889250803d10610261576102538183610964565b388061075a565b83513d87823e3d90fd5b8451634ddcfc7560e01b81528690fd5b9092508381813d83116107d5575b6107c18183610964565b810103126107d15751913861070e565b8680fd5b503d6107b7565b85513d89823e3d90fd5b5050505163ad2b859d60e01b8152fd5b8451635fc483c560e01b81528690fd5b8580fd5b84848492346105b557836003193601126105b5577f0000000000000000000000000000000000000000000000000000000000000000906001600160a01b0390818316330361093357508454168251906370a0823160e01b825230858301526020928383602481855afa9283156107dc578793610904575b5082156108f457845163a9059cbb60e01b81526001600160a01b039091168682019081526020810193909352918391839182908990829060400103925af191821561078f5785926108d757505015610765578280f35b6108ed9250803d10610261576102538183610964565b848061075a565b8451639c7ea50360e01b81528690fd5b9092508381813d831161092c575b61091c8183610964565b810103126107d157519187610881565b503d610912565b635fc483c560e01b81528490fd5b60005b8381106109545750506000910152565b8181015183820152602001610944565b90601f8019910116810190811067ffffffffffffffff82111761098657604052565b634e487b7160e01b600052604160045260246000fd5b908160209103126109b4575180151581036109b45790565b600080fd5b908160209103126109b4575160ff811681036109b45790565b67ffffffffffffffff811161098657601f01601f19166020019056fea26469706673582212205a2a5d07038ddcf83e4f803dec343c1c1394eee08d00981f038a834295f6f88a64736f6c63430008130033",
  "linkReferences": {},
  "deployedLinkReferences": {}
}