{"contracts/TokenICO.sol":{"TokenICO":{"abi":[{"inputs":[],"stateMutability":"nonpayable","type":"constructor"},{"inputs":[],"name":"CannotRescueSaleToken","type":"error"},{"inputs":[],"name":"EthTransferFailed","type":"error"},{"inputs":[],"name":"InvalidAddress","type":"error"},{"inputs":[],"name":"InvalidPrice","type":"error"},{"inputs":[],"name":"NoEtherSent","type":"error"},{"inputs":[],"name":"NoTokenToRescue","type":"error"},{"inputs":[],"name":"NoTokenWithdraw","type":"error"},{"inputs":[],"name":"OnlyOwner","type":"error"},{"inputs":[],"name":"SaleTokenNotSet","type":"error"},{"inputs":[],"name":"TokenTransferFailed","type":"error"},{"inputs":[],"name":"UseTokenFunction","type":"error"},{"anonymous":false,"inputs":[{"indexed":false,"internalType":"uint256","name":"oldPrice","type":"uint256"},{"indexed":false,"internalType":"uint256","name":"newPrice","type":"uint256"}],"name":"PriceUpdated","type":"event"},{"anonymous":false,"inputs":[{"indexed":true,"internalType":"address","name":"token","type":"address"}],"name":"SaleTokenSet","type":"event"},{"anonymous":false,"inputs":[{"indexed":true,"internalType":"address","name":"buyers","type":"address"},{"indexed":false,"internalType":"uint256","name":"amountPaid","type":"uint256"},{"indexed":false,"internalType":"uint256","name":"tokensBought","type":"uint256"}],"name":"TokensPurchased","type":"event"},{"inputs":[],"name":"buyTokens","outputs":[],"stateMutability":"payable","type":"function"},{"inputs":[],"name":"ethPriceForToken","outputs":[{"internalType":"uint256","name":"","type":"uint256"}],"stateMutability":"view","type":"function"},{"inputs":[],"name":"getContractInfo","outputs":[{"internalType":"address","name":"tokenAddress","type":"address"},{"internalType":"string","name":"tokenSymbol","type":"string"},{"internalType":"uint8","name":"tokenDecimals","type":"uint8"},{"internalType":"uint256","name":"tokenBalance","type":"uint256"},{"internalType":"uint256","name":"ethPrice","type":"uint256"},{"internalType":"uint256","name":"tokenSold","type":"uint256"}],"stateMutability":"view","type":"function"},{"inputs":[],"name":"owner","outputs":[{"internalType":"address","name":"","type":"address"}],"stateMutability":"view","type":"function"},{"inputs":[{"internalType":"address","name":"tokenAddress","type":"address"}],"name":"rescueToken","outputs":[],"stateMutability":"nonpayable","type":"function"},{"inputs":[],"name":"saleToken","outputs":[{"internalType":"address","name":"","type":"address"}],"stateMutability":"view","type":"function"},{"inputs":[{"internalType":"address","name":"_token","type":"address"}],"name":"setSaleToken","outputs":[],"stateMutability":"nonpayable","type":"function"},{"inputs":[],"name":"tokensSold","outputs":[{"internalType":"uint256","name":"","type":"uint256"}],"stateMutability":"view","type":"function"},{"inputs":[{"internalType":"uint256","name":"newPrice","type":"uint256"}],"name":"updatetokenPrice","outputs":[],"stateMutability":"nonpayable","type":"function"},{"inputs":[],"name":"withdrawAllToken","outputs":[],"stateMutability":"nonpayable","type":"function"},{"stateMutability":"payable","type":"receive"}],"evm":{"bytecode":{"linkReferences":{},"object":"60a080604052346100515766038d7ea4c6800060015533608052610a249081610057823960805181818161019b0152818161032e015281816103c6015281816105ff015281816106b401526108200152f35b600080fdfe608060408181526004918236101561002b575b50361561001e57600080fd5b5163b67b8d2960e01b8152fd5b600090813560e01c90816314870d2c1461080a575080634460d3cf1461068857806346437626146105e7578063518ab2a8146105c85780637cc1f867146103f55780638da5cb5b146103b1578063a29f481c14610303578063c605af53146102e4578063d0febe4c146100cd5763e985e367036100125790346100c957816003193601126100c957905490516001600160a01b039091168152602090f35b5080fd5b509190826003193601126102e05734156102d35782546001600160a01b031680156102c557815163313ce56760e01b81526020939084818381865afa908115610268579060ff918791610298575b5016604d811161028557600a0a8034029034820403610285576001549081156102725704918260025401600255848451809263a9059cbb60e01b825281898161017c89338a840160209093929193604081019460018060a01b031681520152565b03925af190811561026857869161023b575b501561022d5784808080347f00000000000000000000000000000000000000000000000000000000000000005af13d15610228573d6101cc816109d2565b906101d986519283610964565b815286863d92013e5b1561021a5750907f8fafebcaf9d154343dad25669bfa277f4fbacd7ac6b0c4fed522580e040a0f33918151933485528401523392a280f35b8251630db2c7f160e31b8152fd5b6101e2565b825163022e258160e11b8152fd5b61025b9150853d8711610261575b6102538183610964565b81019061099c565b3861018e565b503d610249565b84513d88823e3d90fd5b634e487b7160e01b875260128352602487fd5b634e487b7160e01b865260118252602486fd5b6102b89150863d88116102be575b6102b08183610964565b8101906109b9565b3861011b565b503d6102a6565b505163a327f80560e01b8152fd5b516341eceffb60e11b8152fd5b8280fd5b5090346100c957816003193601126100c9576020906001549051908152f35b5091346102e05760203660031901126102e05780356001600160a01b0381811693918490036103ad577f00000000000000000000000000000000000000000000000000000000000000001633036103a057821561039357505081546001600160a01b031916811782557f3f8bb5f6e8ecfb5425a48c996d20089aff3396b3c168c13403c3fa3996f70a028280a280f35b5163e6c4247b60e01b8152fd5b51635fc483c560e01b8152fd5b8480fd5b5090346100c957816003193601126100c957517f00000000000000000000000000000000000000000000000000000000000000006001600160a01b03168152602090f35b50346105c557806003193601126105c557805482516395d89b4160e01b81526001600160a01b039091169180828681865afa9182156105b9578192610539575b50835163313ce56760e01b815260209485828881885afa91821561052f578392610510575b508051966370a0823160e01b885230908801528587602481885afa9081156105075783916104d5575b60e096975060ff600154936104b383519a8b998a5260c0818b015288519889918260c08d01528c8c019101610941565b16908601526060850152608084015260a0830152601f01601f19168101030190f35b90508587813d8311610500575b6104ec8183610964565b810103126102e05795519495869590610483565b503d6104e2565b513d84823e3d90fd5b610528919250863d88116102be576102b08183610964565b903861045a565b81513d85823e3d90fd5b9091503d8083833e61054b8183610964565b8101906020818303126102e05780519067ffffffffffffffff82116105b5570181601f820112156102e057805190610582826109d2565b9261058f87519485610964565b828452602083830101116105b557906105ae9160208085019101610941565b9038610435565b8380fd5b508351903d90823e3d90fd5b80fd5b5090346100c957816003193601126100c9576020906002549051908152f35b5091346102e05760203660031901126102e0578035907f00000000000000000000000000000000000000000000000000000000000000006001600160a01b0316330361067a57811561066d5750907f945c1c4e99aa89f648fbfe3df471b916f719e16d960fcec0737d4d56bd69683891600154908060015582519182526020820152a180f35b825162bfc92160e01b8152fd5b8251635fc483c560e01b8152fd5b509190346102e0576020806003193601126105b5576001600160a01b03833581811690819003610806577f00000000000000000000000000000000000000000000000000000000000000009180831633036107f65786541681146107e65783516370a0823160e01b81523086820152918383602481855afa9283156107dc5787936107a9575b50821561079957845163a9059cbb60e01b81526001600160a01b039091168682019081526020810193909352918391839182908990829060400103925af191821561078f578592610772575b505015610765578280f35b5163022e258160e11b8152fd5b6107889250803d10610261576102538183610964565b388061075a565b83513d87823e3d90fd5b8451634ddcfc7560e01b81528690fd5b9092508381813d83116107d5575b6107c18183610964565b810103126107d15751913861070e565b8680fd5b503d6107b7565b85513d89823e3d90fd5b5050505163ad2b859d60e01b8152fd5b8451635fc483c560e01b81528690fd5b8580fd5b84848492346105b557836003193601126105b5577f0000000000000000000000000000000000000000000000000000000000000000906001600160a01b0390818316330361093357508454168251906370a0823160e01b825230858301526020928383602481855afa9283156107dc578793610904575b5082156108f457845163a9059cbb60e01b81526001600160a01b039091168682019081526020810193909352918391839182908990829060400103925af191821561078f5785926108d757505015610765578280f35b6108ed9250803d10610261576102538183610964565b848061075a565b8451639c7ea50360e01b81528690fd5b9092508381813d831161092c575b61091c8183610964565b810103126107d157519187610881565b503d610912565b635fc483c560e01b81528490fd5b60005b8381106109545750506000910152565b8181015183820152602001610944565b90601f8019910116810190811067ffffffffffffffff82111761098657604052565b634e487b7160e01b600052604160045260246000fd5b908160209103126109b4575180151581036109b45790565b600080fd5b908160209103126109b4575160ff811681036109b45790565b67ffffffffffffffff811161098657601f01601f19166020019056fea26469706673582212205a2a5d07038ddcf83e4f803dec343c1c1394eee08d00981f038a834295f6f88a64736f6c63430008130033","opcodes":"PUSH1 0xA0 DUP1 PUSH1 0x40 MSTORE CALLVALUE PUSH2 0x51 JUMPI PUSH7 0x38D7EA4C68000 PUSH1 0x1 SSTORE CALLER PUSH1 0x80 MSTORE PUSH2 0xA24 SWAP1 DUP2 PUSH2 0x57 DUP3 CODECOPY PUSH1 0x80 MLOAD DUP2 DUP2 DUP2 PUSH2 0x19B ADD MSTORE DUP2 DUP2 PUSH2 0x32E ADD MSTORE DUP2 DUP2 PUSH2 0x3C6 ADD MSTORE DUP2 DUP2 PUSH2 0x5FF ADD MSTORE DUP2 DUP2 PUSH2 0x6B4 ADD MSTORE PUSH2 0x820 ADD MSTORE RETURN JUMPDEST PUSH1 0x0 DUP1 REVERT INVALID PUSH1 0x80 PUSH1 0x40 DUP2 DUP2 MSTORE PUSH1 0x4 SWAP2 DUP3 CALLDATASIZE LT ISZERO PUSH2 0x2B JUMPI JUMPDEST POP CALLDATASIZE ISZERO PUSH2 0x1E JUMPI PUSH1 0x0 DUP1 REVERT JUMPDEST MLOAD PUSH4 0xB67B8D29 PUSH1 0xE0 SHL DUP2 MSTORE REVERT JUMPDEST PUSH1 0x0 SWAP1 DUP2 CALLDATALOAD PUSH1 0xE0 SHR SWAP1 DUP2 PUSH4 0x14870D2C EQ PUSH2 0x80A JUMPI POP DUP1 PUSH4 0x4460D3CF EQ PUSH2 0x688 JUMPI DUP1 PUSH4 0x46437626 EQ PUSH2 0x5E7 JUMPI DUP1 PUSH4 0x518AB2A8 EQ PUSH2 0x5C8 JUMPI DUP1 PUSH4 0x7CC1F867 EQ PUSH2 0x3F5 JUMPI DUP1 PUSH4 0x8DA5CB5B EQ PUSH2 0x3B1 JUMPI DUP1 PUSH4 0xA29F481C EQ PUSH2 0x303 JUMPI DUP1 PUSH4 0xC605AF53 EQ PUSH2 0x2E4 JUMPI DUP1 PUSH4 0xD0FEBE4C EQ PUSH2 0xCD JUMPI PUSH4 0xE985E367 SUB PUSH2 0x12 JUMPI SWAP1 CALLVALUE PUSH2 0xC9 JUMPI DUP2 PUSH1 0x3 NOT CALLDATASIZE ADD SLT PUSH2 0xC9 JUMPI SWAP1 SLOAD SWAP1 MLOAD PUSH1 0x1 PUSH1 0x1 PUSH1 0xA0 SHL SUB SWAP1 SWAP2 AND DUP2 MSTORE PUSH1 0x20 SWAP1 RETURN JUMPDEST POP DUP1 REVERT JUMPDEST POP SWAP2 SWAP1 DUP3 PUSH1 0x3 NOT CALLDATASIZE ADD SLT PUSH2 0x2E0 JUMPI CALLVALUE ISZERO PUSH2 0x2D3 JUMPI DUP3 SLOAD PUSH1 0x1 PUSH1 0x1 PUSH1 0xA0 SHL SUB AND DUP1 ISZERO PUSH2 0x2C5 JUMPI DUP2 MLOAD PUSH4 0x313CE567 PUSH1 0xE0 SHL DUP2 MSTORE PUSH1 0x20 SWAP4 SWAP1 DUP5 DUP2 DUP4 DUP2 DUP7 GAS STATICCALL SWAP1 DUP2 ISZERO PUSH2 0x268 JUMPI SWAP1 PUSH1 0xFF SWAP2 DUP8 SWAP2 PUSH2 0x298 JUMPI JUMPDEST POP AND PUSH1 0x4D DUP2 GT PUSH2 0x285 JUMPI PUSH1 0xA EXP DUP1 CALLVALUE MUL SWAP1 CALLVALUE DUP3 DIV SUB PUSH2 0x285 JUMPI PUSH1 0x1 SLOAD SWAP1 DUP2 ISZERO PUSH2 0x272 JUMPI DIV SWAP2 DUP3 PUSH1 0x2 SLOAD ADD PUSH1 0x2 SSTORE DUP5 DUP5 MLOAD DUP1 SWAP3 PUSH4 0xA9059CBB PUSH1 0xE0 SHL DUP3 MSTORE DUP2 DUP10 DUP2 PUSH2 0x17C DUP10 CALLER DUP11 DUP5 ADD PUSH1 0x20 SWAP1 SWAP4 SWAP3 SWAP2 SWAP4 PUSH1 0x40 DUP2 ADD SWAP5 PUSH1 0x1 DUP1 PUSH1 0xA0 SHL SUB AND DUP2 MSTORE ADD MSTORE JUMP JUMPDEST SUB SWAP3 GAS CALL SWAP1 DUP2 ISZERO PUSH2 0x268 JUMPI DUP7 SWAP2 PUSH2 0x23B JUMPI JUMPDEST POP ISZERO PUSH2 0x22D JUMPI DUP5 DUP1 DUP1 DUP1 CALLVALUE PUSH32 0x0 GAS CALL RETURNDATASIZE ISZERO PUSH2 0x228 JUMPI RETURNDATASIZE PUSH2 0x1CC DUP2 PUSH2 0x9D2 JUMP JUMPDEST SWAP1 PUSH2 0x1D9 DUP7 MLOAD SWAP3 DUP4 PUSH2 0x964 JUMP JUMPDEST DUP2 MSTORE DUP7 DUP7 RETURNDATASIZE SWAP3 ADD RETURNDATACOPY JUMPDEST ISZERO PUSH2 0x21A JUMPI POP SWAP1 PUSH32 0x8FAFEBCAF9D154343DAD25669BFA277F4FBACD7AC6B0C4FED522580E040A0F33 SWAP2 DUP2 MLOAD SWAP4 CALLVALUE DUP6 MSTORE DUP5 ADD MSTORE CALLER SWAP3 LOG2 DUP1 RETURN JUMPDEST DUP3 MLOAD PUSH4 0xDB2C7F1 PUSH1 0xE3 SHL DUP2 MSTORE REVERT JUMPDEST PUSH2 0x1E2 JUMP JUMPDEST DUP3 MLOAD PUSH4 0x22E2581 PUSH1 0xE1 SHL DUP2 MSTORE REVERT JUMPDEST PUSH2 0x25B SWAP2 POP DUP6 RETURNDATASIZE DUP8 GT PUSH2 0x261 JUMPI JUMPDEST PUSH2 0x253 DUP2 DUP4 PUSH2 0x964 JUMP JUMPDEST DUP2 ADD SWAP1 PUSH2 0x99C JUMP JUMPDEST CODESIZE PUSH2 0x18E JUMP JUMPDEST POP RETURNDATASIZE PUSH2 0x249 JUMP JUMPDEST DUP5 MLOAD RETURNDATASIZE DUP9 DUP3 RETURNDATACOPY RETURNDATASIZE SWAP1 REVERT JUMPDEST PUSH4 0x4E487B71 PUSH1 0xE0 SHL DUP8 MSTORE PUSH1 0x12 DUP4 MSTORE PUSH1 0x24 DUP8 REVERT JUMPDEST PUSH4 0x4E487B71 PUSH1 0xE0 SHL DUP7 MSTORE PUSH1 0x11 DUP3 MSTORE PUSH1 0x24 DUP7 REVERT JUMPDEST PUSH2 0x2B8 SWAP2 POP DUP7 RETURNDATASIZE DUP9 GT PUSH2 0x2BE JUMPI JUMPDEST PUSH2 0x2B0 DUP2 DUP4 PUSH2 0x964 JUMP JUMPDEST DUP2 ADD SWAP1 PUSH2 0x9B9 JUMP JUMPDEST CODESIZE PUSH2 0x11B JUMP JUMPDEST POP RETURNDATASIZE PUSH2 0x2A6 JUMP JUMPDEST POP MLOAD PUSH4 0xA327F805 PUSH1 0xE0 SHL DUP2 MSTORE REVERT JUMPDEST MLOAD PUSH4 0x41ECEFFB PUSH1 0xE1 SHL DUP2 MSTORE REVERT JUMPDEST DUP3 DUP1 REVERT JUMPDEST POP SWAP1 CALLVALUE PUSH2 0xC9 JUMPI DUP2 PUSH1 0x3 NOT CALLDATASIZE ADD SLT PUSH2 0xC9 JUMPI PUSH1 0x20 SWAP1 PUSH1 0x1 SLOAD SWAP1 MLOAD SWAP1 DUP2 MSTORE RETURN JUMPDEST POP SWAP2 CALLVALUE PUSH2 0x2E0 JUMPI PUSH1 0x20 CALLDATASIZE PUSH1 0x3 NOT ADD SLT PUSH2 0x2E0 JUMPI DUP1 CALLDATALOAD PUSH1 0x1 PUSH1 0x1 PUSH1 0xA0 SHL SUB DUP2 DUP2 AND SWAP4 SWAP2 DUP5 SWAP1 SUB PUSH2 0x3AD JUMPI PUSH32 0x0 AND CALLER SUB PUSH2 0x3A0 JUMPI DUP3 ISZERO PUSH2 0x393 JUMPI POP POP DUP2 SLOAD PUSH1 0x1 PUSH1 0x1 PUSH1 0xA0 SHL SUB NOT AND DUP2 OR DUP3 SSTORE PUSH32 0x3F8BB5F6E8ECFB5425A48C996D20089AFF3396B3C168C13403C3FA3996F70A02 DUP3 DUP1 LOG2 DUP1 RETURN JUMPDEST MLOAD PUSH4 0xE6C4247B PUSH1 0xE0 SHL DUP2 MSTORE REVERT JUMPDEST MLOAD PUSH4 0x5FC483C5 PUSH1 0xE0 SHL DUP2 MSTORE REVERT JUMPDEST DUP5 DUP1 REVERT JUMPDEST POP SWAP1 CALLVALUE PUSH2 0xC9 JUMPI DUP2 PUSH1 0x3 NOT CALLDATASIZE ADD SLT PUSH2 0xC9 JUMPI MLOAD PUSH32 0x0 PUSH1 0x1 PUSH1 0x1 PUSH1 0xA0 SHL SUB AND DUP2 MSTORE PUSH1 0x20 SWAP1 RETURN JUMPDEST POP CALLVALUE PUSH2 0x5C5 JUMPI DUP1 PUSH1 0x3 NOT CALLDATASIZE ADD SLT PUSH2 0x5C5 JUMPI DUP1 SLOAD DUP3 MLOAD PUSH4 0x95D89B41 PUSH1 0xE0 SHL DUP2 MSTORE PUSH1 0x1 PUSH1 0x1 PUSH1 0xA0 SHL SUB SWAP1 SWAP2 AND SWAP2 DUP1 DUP3 DUP7 DUP2 DUP7 GAS STATICCALL SWAP2 DUP3 ISZERO PUSH2 0x5B9 JUMPI DUP2 SWAP3 PUSH2 0x539 JUMPI JUMPDEST POP DUP4 MLOAD PUSH4 0x313CE567 PUSH1 0xE0 SHL DUP2 MSTORE PUSH1 0x20 SWAP5 DUP6 DUP3 DUP9 DUP2 DUP9 GAS STATICCALL SWAP2 DUP3 ISZERO PUSH2 0x52F JUMPI DUP4 SWAP3 PUSH2 0x510 JUMPI JUMPDEST POP DUP1 MLOAD SWAP7 PUSH4 0x70A08231 PUSH1 0xE0 SHL DUP9 MSTORE ADDRESS SWAP1 DUP9 ADD MSTORE DUP6 DUP8 PUSH1 0x24 DUP2 DUP9 GAS STATICCALL SWAP1 DUP2 ISZERO PUSH2 0x507 JUMPI DUP4 SWAP2 PUSH2 0x4D5 JUMPI JUMPDEST PUSH1 0xE0 SWAP7 SWAP8 POP PUSH1 0xFF PUSH1 0x1 SLOAD SWAP4 PUSH2 0x4B3 DUP4 MLOAD SWAP11 DUP12 SWAP10 DUP11 MSTORE PUSH1 0xC0 DUP2 DUP12 ADD MSTORE DUP9 MLOAD SWAP9 DUP10 SWAP2 DUP3 PUSH1 0xC0 DUP14 ADD MSTORE DUP13 DUP13 ADD SWAP2 ADD PUSH2 0x941 JUMP JUMPDEST AND SWAP1 DUP7 ADD MSTORE PUSH1 0x60 DUP6 ADD MSTORE PUSH1 0x80 DUP5 ADD MSTORE PUSH1 0xA0 DUP4 ADD MSTORE PUSH1 0x1F ADD PUSH1 0x1F NOT AND DUP2 ADD SUB ADD SWAP1 RETURN JUMPDEST SWAP1 POP DUP6 DUP8 DUP2 RETURNDATASIZE DUP4 GT PUSH2 0x500 JUMPI JUMPDEST PUSH2 0x4EC DUP2 DUP4 PUSH2 0x964 JUMP JUMPDEST DUP2 ADD SUB SLT PUSH2 0x2E0 JUMPI SWAP6 MLOAD SWAP5 SWAP6 DUP7 SWAP6 SWAP1 PUSH2 0x483 JUMP JUMPDEST POP RETURNDATASIZE PUSH2 0x4E2 JUMP JUMPDEST MLOAD RETURNDATASIZE DUP5 DUP3 RETURNDATACOPY RETURNDATASIZE SWAP1 REVERT JUMPDEST PUSH2 0x528 SWAP2 SWAP3 POP DUP7 RETURNDATASIZE DUP9 GT PUSH2 0x2BE JUMPI PUSH2 0x2B0 DUP2 DUP4 PUSH2 0x964 JUMP JUMPDEST SWAP1 CODESIZE PUSH2 0x45A JUMP JUMPDEST DUP2 MLOAD RETURNDATASIZE DUP6 DUP3 RETURNDATACOPY RETURNDATASIZE SWAP1 REVERT JUMPDEST SWAP1 SWAP2 POP RETURNDATASIZE DUP1 DUP4 DUP4 RETURNDATACOPY PUSH2 0x54B DUP2 DUP4 PUSH2 0x964 JUMP JUMPDEST DUP2 ADD SWAP1 PUSH1 0x20 DUP2 DUP4 SUB SLT PUSH2 0x2E0 JUMPI DUP1 MLOAD SWAP1 PUSH8 0xFFFFFFFFFFFFFFFF DUP3 GT PUSH2 0x5B5 JUMPI ADD DUP2 PUSH1 0x1F DUP3 ADD SLT ISZERO PUSH2 0x2E0 JUMPI DUP1 MLOAD SWAP1 PUSH2 0x582 DUP3 PUSH2 0x9D2 JUMP JUMPDEST SWAP3 PUSH2 0x58F DUP8 MLOAD SWAP5 DUP6 PUSH2 0x964 JUMP JUMPDEST DUP3 DUP5 MSTORE PUSH1 0x20 DUP4 DUP4 ADD ADD GT PUSH2 0x5B5 JUMPI SWAP1 PUSH2 0x5AE SWAP2 PUSH1 0x20 DUP1 DUP6 ADD SWAP2 ADD PUSH2 0x941 JUMP JUMPDEST SWAP1 CODESIZE PUSH2 0x435 JUMP JUMPDEST DUP4 DUP1 REVERT JUMPDEST POP DUP4 MLOAD SWAP1 RETURNDATASIZE SWAP1 DUP3 RETURNDATACOPY RETURNDATASIZE SWAP1 REVERT JUMPDEST DUP1 REVERT JUMPDEST POP SWAP1 CALLVALUE PUSH2 0xC9 JUMPI DUP2 PUSH1 0x3 NOT CALLDATASIZE ADD SLT PUSH2 0xC9 JUMPI PUSH1 0x20 SWAP1 PUSH1 0x2 SLOAD SWAP1 MLOAD SWAP1 DUP2 MSTORE RETURN JUMPDEST POP SWAP2 CALLVALUE PUSH2 0x2E0 JUMPI PUSH1 0x20 CALLDATASIZE PUSH1 0x3 NOT ADD SLT PUSH2 0x2E0 JUMPI DUP1 CALLDATALOAD SWAP1 PUSH32 0x0 PUSH1 0x1 PUSH1 0x1 PUSH1 0xA0 SHL SUB AND CALLER SUB PUSH2 0x67A JUMPI DUP2 ISZERO PUSH2 0x66D JUMPI POP SWAP1 PUSH32 0x945C1C4E99AA89F648FBFE3DF471B916F719E16D960FCEC0737D4D56BD696838 SWAP2 PUSH1 0x1 SLOAD SWAP1 DUP1 PUSH1 0x1 SSTORE DUP3 MLOAD SWAP2 DUP3 MSTORE PUSH1 0x20 DUP3 ADD MSTORE LOG1 DUP1 RETURN JUMPDEST DUP3 MLOAD PUSH3 0xBFC921 PUSH1 0xE0 SHL DUP2 MSTORE REVERT JUMPDEST DUP3 MLOAD PUSH4 0x5FC483C5 PUSH1 0xE0 SHL DUP2 MSTORE REVERT JUMPDEST POP SWAP2 SWAP1 CALLVALUE PUSH2 0x2E0 JUMPI PUSH1 0x20 DUP1 PUSH1 0x3 NOT CALLDATASIZE ADD SLT PUSH2 0x5B5 JUMPI PUSH1 0x1 PUSH1 0x1 PUSH1 0xA0 SHL SUB DUP4 CALLDATALOAD DUP2 DUP2 AND SWAP1 DUP2 SWAP1 SUB PUSH2 0x806 JUMPI PUSH32 0x0 SWAP2 DUP1 DUP4 AND CALLER SUB PUSH2 0x7F6 JUMPI DUP7 SLOAD AND DUP2 EQ PUSH2 0x7E6 JUMPI DUP4 MLOAD PUSH4 0x70A08231 PUSH1 0xE0 SHL DUP2 MSTORE ADDRESS DUP7 DUP3 ADD MSTORE SWAP2 DUP4 DUP4 PUSH1 0x24 DUP2 DUP6 GAS STATICCALL SWAP3 DUP4 ISZERO PUSH2 0x7DC JUMPI DUP8 SWAP4 PUSH2 0x7A9 JUMPI JUMPDEST POP DUP3 ISZERO PUSH2 0x799 JUMPI DUP5 MLOAD PUSH4 0xA9059CBB PUSH1 0xE0 SHL DUP2 MSTORE PUSH1 0x1 PUSH1 0x1 PUSH1 0xA0 SHL SUB SWAP1 SWAP2 AND DUP7 DUP3 ADD SWAP1 DUP2 MSTORE PUSH1 0x20 DUP2 ADD SWAP4 SWAP1 SWAP4 MSTORE SWAP2 DUP4 SWAP2 DUP4 SWAP2 DUP3 SWAP1 DUP10 SWAP1 DUP3 SWAP1 PUSH1 0x40 ADD SUB SWAP3 GAS CALL SWAP2 DUP3 ISZERO PUSH2 0x78F JUMPI DUP6 SWAP3 PUSH2 0x772 JUMPI JUMPDEST POP POP ISZERO PUSH2 0x765 JUMPI DUP3 DUP1 RETURN JUMPDEST MLOAD PUSH4 0x22E2581 PUSH1 0xE1 SHL DUP2 MSTORE REVERT JUMPDEST PUSH2 0x788 SWAP3 POP DUP1 RETURNDATASIZE LT PUSH2 0x261 JUMPI PUSH2 0x253 DUP2 DUP4 PUSH2 0x964 JUMP JUMPDEST CODESIZE DUP1 PUSH2 0x75A JUMP JUMPDEST DUP4 MLOAD RETURNDATASIZE DUP8 DUP3 RETURNDATACOPY RETURNDATASIZE SWAP1 REVERT JUMPDEST DUP5 MLOAD PUSH4 0x4DDCFC75 PUSH1 0xE0 SHL DUP2 MSTORE DUP7 SWAP1 REVERT JUMPDEST SWAP1 SWAP3 POP DUP4 DUP2 DUP2 RETURNDATASIZE DUP4 GT PUSH2 0x7D5 JUMPI JUMPDEST PUSH2 0x7C1 DUP2 DUP4 PUSH2 0x964 JUMP JUMPDEST DUP2 ADD SUB SLT PUSH2 0x7D1 JUMPI MLOAD SWAP2 CODESIZE PUSH2 0x70E JUMP JUMPDEST DUP7 DUP1 REVERT JUMPDEST POP RETURNDATASIZE PUSH2 0x7B7 JUMP JUMPDEST DUP6 MLOAD RETURNDATASIZE DUP10 DUP3 RETURNDATACOPY RETURNDATASIZE SWAP1 REVERT JUMPDEST POP POP POP MLOAD PUSH4 0xAD2B859D PUSH1 0xE0 SHL DUP2 MSTORE REVERT JUMPDEST DUP5 MLOAD PUSH4 0x5FC483C5 PUSH1 0xE0 SHL DUP2 MSTORE DUP7 SWAP1 REVERT JUMPDEST DUP6 DUP1 REVERT JUMPDEST DUP5 DUP5 DUP5 SWAP3 CALLVALUE PUSH2 0x5B5 JUMPI DUP4 PUSH1 0x3 NOT CALLDATASIZE ADD SLT PUSH2 0x5B5 JUMPI PUSH32 0x0 SWAP1 PUSH1 0x1 PUSH1 0x1 PUSH1 0xA0 SHL SUB SWAP1 DUP2 DUP4 AND CALLER SUB PUSH2 0x933 JUMPI POP DUP5 SLOAD AND DUP3 MLOAD SWAP1 PUSH4 0x70A08231 PUSH1 0xE0 SHL DUP3 MSTORE ADDRESS DUP6 DUP4 ADD MSTORE PUSH1 0x20 SWAP3 DUP4 DUP4 PUSH1 0x24 DUP2 DUP6 GAS STATICCALL SWAP3 DUP4 ISZERO PUSH2 0x7DC JUMPI DUP8 SWAP4 PUSH2 0x904 JUMPI JUMPDEST POP DUP3 ISZERO PUSH2 0x8F4 JUMPI DUP5 MLOAD PUSH4 0xA9059CBB PUSH1 0xE0 SHL DUP2 MSTORE PUSH1 0x1 PUSH1 0x1 PUSH1 0xA0 SHL SUB SWAP1 SWAP2 AND DUP7 DUP3 ADD SWAP1 DUP2 MSTORE PUSH1 0x20 DUP2 ADD SWAP4 SWAP1 SWAP4 MSTORE SWAP2 DUP4 SWAP2 DUP4 SWAP2 DUP3 SWAP1 DUP10 SWAP1 DUP3 SWAP1 PUSH1 0x40 ADD SUB SWAP3 GAS CALL SWAP2 DUP3 ISZERO PUSH2 0x78F JUMPI DUP6 SWAP3 PUSH2 0x8D7 JUMPI POP POP ISZERO PUSH2 0x765 JUMPI DUP3 DUP1 RETURN JUMPDEST PUSH2 0x8ED SWAP3 POP DUP1 RETURNDATASIZE LT PUSH2 0x261 JUMPI PUSH2 0x253 DUP2 DUP4 PUSH2 0x964 JUMP JUMPDEST DUP5 DUP1 PUSH2 0x75A JUMP JUMPDEST DUP5 MLOAD PUSH4 0x9C7EA503 PUSH1 0xE0 SHL DUP2 MSTORE DUP7 SWAP1 REVERT JUMPDEST SWAP1 SWAP3 POP DUP4 DUP2 DUP2 RETURNDATASIZE DUP4 GT PUSH2 0x92C JUMPI JUMPDEST PUSH2 0x91C DUP2 DUP4 PUSH2 0x964 JUMP JUMPDEST DUP2 ADD SUB SLT PUSH2 0x7D1 JUMPI MLOAD SWAP2 DUP8 PUSH2 0x881 JUMP JUMPDEST POP RETURNDATASIZE PUSH2 0x912 JUMP JUMPDEST PUSH4 0x5FC483C5 PUSH1 0xE0 SHL DUP2 MSTORE DUP5 SWAP1 REVERT JUMPDEST PUSH1 0x0 JUMPDEST DUP4 DUP2 LT PUSH2 0x954 JUMPI POP POP PUSH1 0x0 SWAP2 ADD MSTORE JUMP JUMPDEST DUP2 DUP2 ADD MLOAD DUP4 DUP3 ADD MSTORE PUSH1 0x20 ADD PUSH2 0x944 JUMP JUMPDEST SWAP1 PUSH1 0x1F DUP1 NOT SWAP2 ADD AND DUP2 ADD SWAP1 DUP2 LT PUSH8 0xFFFFFFFFFFFFFFFF DUP3 GT OR PUSH2 0x986 JUMPI PUSH1 0x40 MSTORE JUMP JUMPDEST PUSH4 0x4E487B71 PUSH1 0xE0 SHL PUSH1 0x0 MSTORE PUSH1 0x41 PUSH1 0x4 MSTORE PUSH1 0x24 PUSH1 0x0 REVERT JUMPDEST SWAP1 DUP2 PUSH1 0x20 SWAP2 SUB SLT PUSH2 0x9B4 JUMPI MLOAD DUP1 ISZERO ISZERO DUP2 SUB PUSH2 0x9B4 JUMPI SWAP1 JUMP JUMPDEST PUSH1 0x0 DUP1 REVERT JUMPDEST SWAP1 DUP2 PUSH1 0x20 SWAP2 SUB SLT PUSH2 0x9B4 JUMPI MLOAD PUSH1 0xFF DUP2 AND DUP2 SUB PUSH2 0x9B4 JUMPI SWAP1 JUMP JUMPDEST PUSH8 0xFFFFFFFFFFFFFFFF DUP2 GT PUSH2 0x986 JUMPI PUSH1 0x1F ADD PUSH1 0x1F NOT AND PUSH1 0x20 ADD SWAP1 JUMP INVALID LOG2 PUSH5 0x6970667358 0x22 SLT KECCAK256 GAS 0x2A 0x5D SMOD SUB DUP14 0xDC 0xF8 RETURNDATACOPY 0x4F DUP1 RETURNDATASIZE 0xEC CALLVALUE EXTCODECOPY SHR SGT SWAP5 0xEE 0xE0 DUP14 STOP SWAP9 0x1F SUB DUP11 DUP4 TIMESTAMP SWAP6 0xF6 0xF8 DUP11 PUSH5 0x736F6C6343 STOP ADDMOD SGT STOP CALLER "},"methodIdentifiers":{"buyTokens()":"d0febe4c","ethPriceForToken()":"c605af53","getContractInfo()":"7cc1f867","owner()":"8da5cb5b","rescueToken(address)":"4460d3cf","saleToken()":"e985e367","setSaleToken(address)":"a29f481c","tokensSold()":"518ab2a8","updatetokenPrice(uint256)":"46437626","withdrawAllToken()":"14870d2c"}}}}}